{
  "contractName": "ProductManager",
  "abi": [
    {
      "inputs": [],
      "stateMutability": "nonpayable",
      "type": "constructor"
    },
    {
      "inputs": [],
      "name": "owner",
      "outputs": [
        {
          "internalType": "address",
          "name": "",
          "type": "address"
        }
      ],
      "stateMutability": "view",
      "type": "function"
    },
    {
      "inputs": [
        {
          "internalType": "uint256",
          "name": "",
          "type": "uint256"
        }
      ],
      "name": "products",
      "outputs": [
        {
          "internalType": "string",
          "name": "productName",
          "type": "string"
        },
        {
          "internalType": "string",
          "name": "description",
          "type": "string"
        },
        {
          "internalType": "string",
          "name": "uniqueIdentifier",
          "type": "string"
        }
      ],
      "stateMutability": "view",
      "type": "function"
    },
    {
      "inputs": [
        {
          "internalType": "string",
          "name": "_productName",
          "type": "string"
        },
        {
          "internalType": "string",
          "name": "_description",
          "type": "string"
        },
        {
          "internalType": "string",
          "name": "_uniqueIdentifier",
          "type": "string"
        }
      ],
      "name": "addProduct",
      "outputs": [],
      "stateMutability": "nonpayable",
      "type": "function"
    },
    {
      "inputs": [],
      "name": "getProductCount",
      "outputs": [
        {
          "internalType": "uint256",
          "name": "",
          "type": "uint256"
        }
      ],
      "stateMutability": "view",
      "type": "function"
    },
    {
      "inputs": [
        {
          "internalType": "uint256",
          "name": "_index",
          "type": "uint256"
        }
      ],
      "name": "getProduct",
      "outputs": [
        {
          "internalType": "string",
          "name": "",
          "type": "string"
        },
        {
          "internalType": "string",
          "name": "",
          "type": "string"
        },
        {
          "internalType": "string",
          "name": "",
          "type": "string"
        }
      ],
      "stateMutability": "view",
      "type": "function"
    }
  ],
  "bytecode": "0x608060405234801561001057600080fd5b5033600160006101000a81548173ffffffffffffffffffffffffffffffffffffffff021916908373ffffffffffffffffffffffffffffffffffffffff160217905550610c27806100616000396000f3fe608060405234801561001057600080fd5b50600436106100575760003560e01c80630e34b00e1461005c5780634a348da9146100785780637acc0b20146100965780638da5cb5b146100c8578063b9db15b4146100e6575b600080fd5b610076600480360381019061007191906107e5565b610118565b005b61008061024c565b60405161008d9190610a23565b60405180910390f35b6100b060048036038101906100ab919061087c565b610258565b6040516100bf93929190610997565b60405180910390f35b6100d061042a565b6040516100dd919061097c565b60405180910390f35b61010060048036038101906100fb919061087c565b610450565b60405161010f93929190610997565b60405180910390f35b600160009054906101000a900473ffffffffffffffffffffffffffffffffffffffff1673ffffffffffffffffffffffffffffffffffffffff163373ffffffffffffffffffffffffffffffffffffffff16146101a8576040517f08c379a000000000000000000000000000000000000000000000000000000000815260040161019f90610a03565b60405180910390fd5b60006040518060600160405280858152602001848152602001838152509080600181540180825580915050600190039060005260206000209060030201600090919091909150600082015181600001908051906020019061020a9291906106c5565b5060208201518160010190805190602001906102279291906106c5565b5060408201518160020190805190602001906102449291906106c5565b505050505050565b60008080549050905090565b6000818154811061026857600080fd5b906000526020600020906003020160009150905080600001805461028b90610b39565b80601f01602080910402602001604051908101604052809291908181526020018280546102b790610b39565b80156103045780601f106102d957610100808354040283529160200191610304565b820191906000526020600020905b8154815290600101906020018083116102e757829003601f168201915b50505050509080600101805461031990610b39565b80601f016020809104026020016040519081016040528092919081815260200182805461034590610b39565b80156103925780601f1061036757610100808354040283529160200191610392565b820191906000526020600020905b81548152906001019060200180831161037557829003601f168201915b5050505050908060020180546103a790610b39565b80601f01602080910402602001604051908101604052809291908181526020018280546103d390610b39565b80156104205780601f106103f557610100808354040283529160200191610420565b820191906000526020600020905b81548152906001019060200180831161040357829003601f168201915b5050505050905083565b600160009054906101000a900473ffffffffffffffffffffffffffffffffffffffff1681565b6060806060600080549050841061049c576040517f08c379a0000000000000000000000000000000000000000000000000000000008152600401610493906109e3565b60405180910390fd5b60008085815481106104d7577f4e487b7100000000000000000000000000000000000000000000000000000000600052603260045260246000fd5b906000526020600020906003020160405180606001604052908160008201805461050090610b39565b80601f016020809104026020016040519081016040528092919081815260200182805461052c90610b39565b80156105795780601f1061054e57610100808354040283529160200191610579565b820191906000526020600020905b81548152906001019060200180831161055c57829003601f168201915b5050505050815260200160018201805461059290610b39565b80601f01602080910402602001604051908101604052809291908181526020018280546105be90610b39565b801561060b5780601f106105e05761010080835404028352916020019161060b565b820191906000526020600020905b8154815290600101906020018083116105ee57829003601f168201915b5050505050815260200160028201805461062490610b39565b80601f016020809104026020016040519081016040528092919081815260200182805461065090610b39565b801561069d5780601f106106725761010080835404028352916020019161069d565b820191906000526020600020905b81548152906001019060200180831161068057829003601f168201915b5050505050815250509050806000015181602001518260400151935093509350509193909250565b8280546106d190610b39565b90600052602060002090601f0160209004810192826106f3576000855561073a565b82601f1061070c57805160ff191683800117855561073a565b8280016001018555821561073a579182015b8281111561073957825182559160200191906001019061071e565b5b509050610747919061074b565b5090565b5b8082111561076457600081600090555060010161074c565b5090565b600061077b61077684610a6f565b610a3e565b90508281526020810184848401111561079357600080fd5b61079e848285610af7565b509392505050565b600082601f8301126107b757600080fd5b81356107c7848260208601610768565b91505092915050565b6000813590506107df81610bda565b92915050565b6000806000606084860312156107fa57600080fd5b600084013567ffffffffffffffff81111561081457600080fd5b610820868287016107a6565b935050602084013567ffffffffffffffff81111561083d57600080fd5b610849868287016107a6565b925050604084013567ffffffffffffffff81111561086657600080fd5b610872868287016107a6565b9150509250925092565b60006020828403121561088e57600080fd5b600061089c848285016107d0565b91505092915050565b6108ae81610abb565b82525050565b60006108bf82610a9f565b6108c98185610aaa565b93506108d9818560208601610b06565b6108e281610bc9565b840191505092915050565b60006108fa601683610aaa565b91507f50726f6475637420646f6573206e6f74206578697374000000000000000000006000830152602082019050919050565b600061093a601f83610aaa565b91507f4f6e6c7920746865206f776e65722063616e206164642070726f6475637473006000830152602082019050919050565b61097681610aed565b82525050565b600060208201905061099160008301846108a5565b92915050565b600060608201905081810360008301526109b181866108b4565b905081810360208301526109c581856108b4565b905081810360408301526109d981846108b4565b9050949350505050565b600060208201905081810360008301526109fc816108ed565b9050919050565b60006020820190508181036000830152610a1c8161092d565b9050919050565b6000602082019050610a38600083018461096d565b92915050565b6000604051905081810181811067ffffffffffffffff82111715610a6557610a64610b9a565b5b8060405250919050565b600067ffffffffffffffff821115610a8a57610a89610b9a565b5b601f19601f8301169050602081019050919050565b600081519050919050565b600082825260208201905092915050565b6000610ac682610acd565b9050919050565b600073ffffffffffffffffffffffffffffffffffffffff82169050919050565b6000819050919050565b82818337600083830152505050565b60005b83811015610b24578082015181840152602081019050610b09565b83811115610b33576000848401525b50505050565b60006002820490506001821680610b5157607f821691505b60208210811415610b6557610b64610b6b565b5b50919050565b7f4e487b7100000000000000000000000000000000000000000000000000000000600052602260045260246000fd5b7f4e487b7100000000000000000000000000000000000000000000000000000000600052604160045260246000fd5b6000601f19601f8301169050919050565b610be381610aed565b8114610bee57600080fd5b5056fea26469706673582212207845214c64ef24dbeba77a26dcc7aa97f1bd8f64abea5f8bce75a2e5c1cb5e2d64736f6c63430008000033",
  "immutableReferences": {},
  "source": "pragma solidity ^0.8.0;\r\n\r\ncontract ProductManager {\r\n    struct Product {\r\n        string productName;\r\n        string description;\r\n        string uniqueIdentifier;\r\n    }\r\n\r\n    Product[] public products;\r\n    address public owner;\r\n\r\n    constructor() {\r\n        owner = msg.sender;\r\n    }\r\n\r\n    function addProduct(string memory _productName, string memory _description, string memory _uniqueIdentifier) public {\r\n        require(msg.sender == owner, \"Only the owner can add products\");\r\n        products.push(Product(_productName, _description, _uniqueIdentifier));\r\n    }\r\n\r\n    function getProductCount() public view returns (uint) {\r\n        return products.length;\r\n    }\r\n\r\n    function getProduct(uint _index) public view returns (string memory, string memory, string memory) {\r\n        require(_index < products.length, \"Product does not exist\");\r\n        Product memory product = products[_index];\r\n        return (product.productName, product.description, product.uniqueIdentifier);\r\n    }\r\n}",
  "sourcePath": "C:\\Users\\AJ OFRACIO\\Downloads\\Authentithief_Prototype_Final-main\\product-blockchain\\contracts\\ProductManager.sol",
  "compiler": {
    "name": "solc",
    "version": "0.8.0+commit.c7dfd78e.Emscripten.clang"
  },
  "schemaVersion": "3.4.16",
  "updatedAt": "2024-09-17T15:29:44.677Z",
  "devdoc": {
    "kind": "dev",
    "methods": {},
    "version": 1
  },
  "userdoc": {
    "kind": "user",
    "methods": {},
    "version": 1
  }
}